:100000000A128A11F22F00308A000408840A82073B
:1000100000345F344434533431343334303437347F
:10002000203452345434433420344D344F34443427
:1000300055344C3445345F3400342D34203443344B
:100040004C344F3443344B343A34203400342D3460
:10005000203444344134543445343A342034003468
:100AEE00831603138601FF3087000800313083160A
:100AFE000313930028308312031394000800F300AD
:100B0E007308F4008E2D0130F2007208F407740899
:100B1E0084000A128A1103200A128A11003A031D58
:100B2E00992D9A2D8A2D73087402F000F101F01B95
:100B3E00F103080002300A128A113C260A128A11A9
:100B4E0028300A128A113C260A128A110C300A1217
:100B5E008A113C260A128A1104300A128A113C2686
:100B6E000A128A1101300A128A113C260A128A11BF
:100B7E000800F80078080A128A1186250A128A11CE
:100B8E007008F600F701DC2D7708780784000A124A
:100B9E008A1103200A128A110A128A110B260A12CE
:100BAE008A110130F5007508F70776087702031CE5
:100BBE00E12DE22DCB2D0800F4007408F500750828
:100BCE00F039F5007508F30004300310F30CFF3E06
:100BDE00031DEC2D7308F50075083038F500750807
:100BEE000A128A110B260A128A117408F50075086A
:100BFE000F39F50075083038F50075080A128A119C
:100C0E000B260A128A110800F2007208F0398312BC
:100C1E00031386000615861006140D30F100FB3006
:100C2E00F000F00B182EF10B182E1D2E831203134D
:100C3E0006117208F00003300310F00DFF3E031D85
:100C4E00232E0310700DF03986000615861006143B
:100C5E000D30F100FB30F000F00B332EF10B332E84
:100C6E00382E8312031306110800F2007208F039B1
:100C7E008312031386000615861006100D30F10040
:100C8E00FB30F000F00B492EF10B492E4E2E831245
:100C9E00031306117208F00003300310F00DFF3E2F
:100CAE00031D542E0310700DF039860006158610A4
:100CBE0006100D30F100FB30F000F00B642EF10B3E
:100CCE00642E692E83120313061108000A128A116C
:100CDE0077250A128A110A128A11A1250A128A117F
:100CEE000A128A117D250A128A1180300A128A117F
:100CFE003C260A128A1115300A128A11C0250A12D0
:100D0E008A11C0300A128A113C260A128A111F302B
:100D1E000A128A11C0250A128A110830FB009D3072
:100D2E00FA000530F900F90B9A2EFA0B9A2EFB0BEE
:100D3E009A2EA12ED4300A128A113C260A128A113A
:100D4E0001300A128A11C0250A128A110830FB00DE
:100D5E009D30FA000530F900F90BB32EFA0BB32EC5
:100D6E00FB0BB32EBA2EF601D0300A128A11C5260D
:100D7E000A128A11AD2E0A128A110028F700831664
:100D8E00031311141118CC2ECD2EC92E831203135A
:100D9E008C11770893008C1DD52ED62ED22E8C1149
:100DAE0083160313111FDC2EDD2EE32E11151119E0
:100DBE00E12EE22EDE2EF12F76088312031393001E
:100DCE008C1DEA2EEB2EE72E8C1183160313111FAA
:100DDE00F12EF22EF82E11151119F62EF72EF32EE6
:100DEE00F12F91149118FC2EFD2EF92E8312031360
:100DFE008C117708013E93008C1D062F072F032FB1
:100E0E008C1183160313111F0D2F0E2F142F111576
:100E1E001119122F132F0F2FF12F9115141C182F9C
:100E2E00192F152F831203131308FD0083160313B6
:100E3E0091121116111A242F252F212F9115141CE2
:100E4E00292F2A2F262F831203131308FC00831633
:100E5E00031391121116111A352F362F322F9115A9
:100E6E00141C3A2F3B2F372F831203131308A500A0
:100E7E008316031391121116111A462F472F432F63
:100E8E009115141C4B2F4C2F482F8312031313084C
:100E9E00A4008316031391121116111A572F582FEF
:100EAE00542F9115141C5C2F5D2F592F8312031391
:100EBE001308A3008316031391121116111A682F2B
:100ECE00692F652F9115141C6D2F6E2F6A2F8312AB
:100EDE0003131308A2008316031391121116111A8D
:100EEE00792F7A2F762F9115141C7E2F7F2F7B2F23
:100EFE00831203131308A100831603139112111604
:100F0E00111A8A2F8B2F872F9115141C8F2F902F2C
:100F1E008C2F831203131308A00083160313911250
:100F2E001116111A9B2F9C2F982F11151119A02FE6
:100F3E00A12F9D2F88300A128A113C260A128A117F
:100F4E008312031325080A128A11E3250A128A1145
:100F5E003A300A128A110B260A128A117C080A12DA
:100F6E008A11E3250A128A113A300A128A110B26C7
:100F7E000A128A117D080A128A11E3250A128A11B1
:100F8E00C7300A128A113C260A128A1183120313E1
:100F9E0023080A128A11E3250A128A112F300A1227
:100FAE008A110B260A128A118312031322080A12BF
:100FBE008A11E3250A128A112F300A128A110B2682
:100FCE000A128A118312031321080A128A11E325C9
:100FDE000A128A110800FC01FD0183120313A001FD
:100FEE00A101A201A301A401A50183010A128A1184
:020FFE006D2E56
:08400000FF3FFF3FFF3FFF3FC0
:02400E00FB3F76
:00000001FF
